:0400000023EF01F0F9
:100008000182F2A00AEF00F00CEF00F021EF01F0FE
:100018000E0E8A1281BE13EF00F015EF00F01EEFEE
:1000280000F081B01AEF00F01CEF00F01EEF00F0B6
:10003800770E8B6E81BC23EF00F025EF00F02EEFDA
:1000480000F081B02AEF00F02CEF00F02EEF00F066
:10005800670E8B6E81BA33EF00F035EF00F03EEF9C
:1000680000F081B03AEF00F03CEF00F03EEF00F016
:100078007F0E8B6E81B843EF00F045EF00F04EEF36
:1000880000F081B04AEF00F04CEF00F04EEF00F0C6
:10009800070E8B6EF00E8A160D0E8A1281BE57EF70
:1000A80000F059EF00F062EF00F081B25EEF00F06F
:1000B80060EF00F062EF00F0760E8B6E81BC67EFA8
:1000C80000F069EF00F072EF00F081B26EEF00F01F
:1000D80070EF00F072EF00F07D0E8B6E81BA77EF53
:1000E80000F079EF00F082EF00F081B27EEF00F0CF
:1000F80080EF00F082EF00F06D0E8B6E81B887EF15
:1001080000F089EF00F092EF00F081B28EEF00F07E
:1001180090EF00F092EF00F0660E8B6EF00E8A16EC
:100128000B0E8A1281BE9BEF00F09DEF00F0A6EF48
:1001380000F081B4A2EF00F0A4EF00F0A6EF00F009
:10014800400E8B6E81BCABEF00F0ADEF00F0B6EF68
:1001580000F081B4B2EF00F0B4EF00F0B6EF00F0B9
:100168004F0E8B6E81BABBEF00F0BDEF00F0C6EF0B
:1001780000F081B4C2EF00F0C4EF00F0C6EF00F069
:100188005B0E8B6E81B8CBEF00F0CDEF00F0D6EFB1
:1001980000F081B4D2EF00F0D4EF00F0D6EF00F019
:1001A800060E8B6EF00E8A16070E8A1281B8DFEFE4
:1001B80000F0E1EF00F0EAEF00F081B6E6EF00F0C2
:1001C800E8EF00F0EAEF00F0630E8B6E81BAEFEF14
:1001D80000F0F1EF00F0FAEF00F081B6F6EF00F072
:1001E800F8EF00F0FAEF00F03F0E8B6E81BCFFEFE6
:1001F80000F001EF01F00AEF01F081B606EF01F01F
:1002080008EF01F00AEF01F0480E8B6E81BE0FEF88
:1002180001F011EF01F01AEF01F081B616EF01F0CD
:1002280018EF01F01AEF01F06D0E8B6EF00E8A16C2
:100238003C0EE82EFED78150F2900192110047EF54
:1002480001F0000E8A6E000E8B6EE00E7F16F19E96
:10025800F00E7C12F00E9312F00E9316000E946EB0
:100268001200D09E370EF216F00E7D12F180D08E5D
:10027800C80EF212120025EC01F035EC01F043EF44
:1002880001F023EF01F00190019200013FEF01F02E
:020000040020DA
:08000000FFFFFFFFFFFFFFFF00
:020000040030CA
:0E000000FF071F1FFF8B85FF0FC00FE00F4093
:00000001FF
