:0400000089EF3FF055
:107F1200046A036A026A016A00019AEF3FF09E92C4
:107F2200000ECC6E7F0ECB6E030ECA12CA94CA84A8
:107F32001200949490EC3FF00C0EBD6E000E076E92
:107F4200000E066E000E056E05C004F004C007F0B8
:107F520007C008F0010E0816083ABD500818EF0BCA
:107F62000818BD6ED8900730BE6E140E086E7A0ED9
:107F7200E82EFED7082EFCD7054A062A06BECBEF0E
:107F82003FF0F50E055C010E0658D8A0CBEF3FF08E
:107F9200CDEF3FF0A5EF3FF004C001F0026AEDEF34
:107FA2003FF001C003F003C007F007C008F0010E64
:107FB2000816083ABD500818EF0B0818BD6ED89085
:107FC2000730BE6E140E086E7A0EE82EFED7082E0B
:107FD200FCD70106D8A0020602BEF4EF3FF0F2EF92
:107FE2003FF0D2EF3FF0000E026E000E016E000E67
:0E7FF200066E000E056E9FEF3FF000EF00F0F0
:020000040020DA
:08000000FFFFFFFFFFFFFFFF00
:020000040030CA
:0E000000FF021F1FFF8B85FF0FC00FE00F4098
:00000001FF
