:0400000087EF3FF057
:107F0E00046A036A026A016A000198EF3FF09E92CA
:107F1E00000ECC6E7F0ECB6E030ECA12CA94CA84AC
:107F2E00120094948EEC3FF00C0EBD6E000E076E98
:107F3E00000E066E000E056E05C004F004C007F0BC
:107F4E0007C008F0010E0816083ABD500818EF0BCE
:107F5E000818BD6ED8900730BE6E270E086EF50E4F
:107F6E00E82EFED7082EFCD700F0054A062A06BEDC
:107F7E00CAEF3FF0F50E055C010E0658D8A0CAEF09
:107F8E003FF0CCEF3FF0A3EF3FF004C001F0026AE8
:107F9E00EDEF3FF001C003F003C007F007C008F09B
:107FAE00010E0816083ABD500818EF0B0818BD6EE2
:107FBE00D8900730BE6E270E086EF50EE82EFED74F
:107FCE00082EFCD700F00106D8A0020602BEF4EF80
:107FDE003FF0F2EF3FF0D1EF3FF0000E026E000ED9
:107FEE00016E000E066E000E056E9DEF3FF000EF67
:027FFE0000F091
:020000040020DA
:08000000FFFFFFFFFFFFFFFF00
:020000040030CA
:0E000000FF021F1FFF8B85FF0FC00FE00F4098
:00000001FF
