:0400000025EF01F0F7
:100008000182F2A00AEF00F00CEF00F023EF01F0FC
:100018000E0E8A1281B813EF00F015EF00F01EEFF4
:1000280000F081B01AEF00F01CEF00F01EEF00F0B6
:10003800070E8B6E81BA23EF00F025EF00F02EEF4C
:1000480000F081B02AEF00F02CEF00F02EEF00F066
:100058007F0E8B6E81BC33EF00F035EF00F03EEF82
:1000680000F081B03AEF00F03CEF00F03EEF00F016
:10007800670E8B6E81BE43EF00F045EF00F04EEF48
:1000880000F081B04AEF00F04CEF00F04EEF00F0C6
:10009800770E8B6EF00E8A160D0E8A1281B857EF06
:1000A80000F059EF00F062EF00F081B25EEF00F06F
:1000B80060EF00F062EF00F0660E8B6E81BA67EFBA
:1000C80000F069EF00F072EF00F081B26EEF00F01F
:1000D80070EF00F072EF00F06D0E8B6E81BC77EF61
:1000E80000F079EF00F082EF00F081B27EEF00F0CF
:1000F80080EF00F082EF00F07D0E8B6E81BE87EFFF
:1001080000F089EF00F092EF00F081B28EEF00F07E
:1001180090EF00F092EF00F07C0E8B6EF00E8A16D6
:100128000B0E8A1281B89BEF00F09DEF00F0A6EF4E
:1001380000F081B4A2EF00F0A4EF00F0A6EF00F009
:10014800060E8B6E81BAABEF00F0ADEF00F0B6EFA4
:1001580000F081B4B2EF00F0B4EF00F0B6EF00F0B9
:100168005B0E8B6E81BCBBEF00F0BDEF00F0C6EFFD
:1001780000F081B4C2EF00F0C4EF00F0C6EF00F069
:100188004F0E8B6E81BECBEF00F0CDEF00F0D6EFB7
:1001980000F081B4D2EF00F0D4EF00F0D6EF00F019
:1001A800390E8B6EF00E8A16070E8A1281B8DFEFB1
:1001B80000F0E1EF00F0EAEF00F081B6E6EF00F0C2
:1001C800E8EF00F0EAEF00F0760E8B6E81BAEFEF01
:1001D80000F0F1EF00F0FAEF00F081B6F6EF00F072
:1001E800F8EF00F0FAEF00F03F0E8B6E81BCFFEFE6
:1001F80000F001EF01F00AEF01F081B606EF01F01F
:1002080008EF01F00AEF01F0360E8B6E81BE0FEF9A
:1002180001F011EF01F01AEF01F081B616EF01F0CD
:1002280018EF01F01AEF01F05E0E8B6EF00E8A16D1
:10023800420EE82EFED700F000F08150F2900192B5
:10024800110049EF01F0000E8B6E000E8A6EE00E71
:100258007F16F19EF00E7C12F00E9312F00E93169C
:10026800000E946E1200D09E370EF216F00E7D121C
:10027800F180D08EC80EF212120027EC01F037EC94
:1002880001F045EF01F025EF01F001900192000126
:0402980041EF01F041
:020000040020DA
:08000000FFFFFFFFFFFFFFFF00
:020000040030CA
:0E000000FF071F1FFF8B85FF0FC00FE00F4093
:00000001FF
